:1000000000000320D1010000651E00001D1E00003D
:100010001D1E00001D1E00001D1E00001D1E0000F4
:100020001D1E00001D1E00001D1E0000651E00009C
:10003000651E00001D1E0000C1380000C53900000B
:10004000651E0000651E0000651E0000651E0000A4
:10005000651E0000651E0000651E0000651E000094
:10006000651E0000651E0000651E0000651E000084
:10007000651E0000651E0000651E0000651E000074
:10008000651E0000651E0000651E0000651E000064
:10009000651E0000651E0000651E0000651E000054
:1000A000651E0000651E0000651E0000651E000044
:1000B000651E0000651E0000651E0000653B000017
:1000C000651E0000913C0000651E0000BD3D000063
:1000D000651E0000B53E0000651E0000651E0000A4
:1000E000651E0000651E0000651E0000651E000004
:1000F000651E0000651E0000651E0000651E0000F4
:10010000651E0000651E0000651E0000651E0000E3
:10011000651E0000C1270000651E0000651E00006E
:10012000651E0000651E0000651E0000651E0000C3
:10013000651E0000651E0000651E0000651E0000B3
:10014000651E0000651E0000AD3F0000651E00003A
:10015000651E0000651E0000651E0000651E000093
:10016000651E0000651E0000651E0000651E000083
:10017000651E0000651E0000651E0000651E000073
:10018000651E0000651E0000651E0000651E000063
:10019000651E0000651E0000A5400000651E0000F1
:1001A000651E0000651E0000651E0000651E000043
:1001B000651E0000651E0000651E0000651E000033
:1001C000651E0000651E0000651E0000651E000023
:1001D0005C4B4CF2205210B51A804DF628121A8052
:1001E00000BF00BF01F042FE574B4FF030621A6073
:1001F000564A9A60564ADA60564B4FF470021A60BB
:10020000554B564A1A60564B1A78110703D51A787F
:1002100042F008021A70534B5349AA221A70534AEB
:10022000534B8B4204D252F8040F43F8040BF8E707
:10023000504B514900228B4202D243F8042BFAE77B
:100240004E494F4A002352F8230041F8230001335E
:10025000742BF8D14B4B4C4A802103F8011B93427D
:10026000FBD14A4B454A1A60494B8A221A70A3F5C2
:10027000805324225A70A0221A709A799207FCD5D2
:100280009A79D406FCD4434A937903F00C03082BE3
:10029000FAD1414B60221A7002331A78802AFCD1BD
:1002A0003C4B01221A715D225A719A799006FCD555
:1002B0009979384A4906FBD5384B394919600021EC
:1002C000596020231370937903F00C030C2BFAD19F
:1002D000344B354A1A60354A354C136813F4807331
:1002E00003D123604FF4A8531360324B324A1A6093
:1002F00000225A60072243F8042C304AC3F80C2D20
:1003000062B602F0CDF82368DA0705D52C4801F073
:1003100089FE2C4B2C4A1A602C4B1B785B0609D5A6
:10032000284C294B22689A4204D1254801F07AFED4
:100330000023236004F0E4FB01F09EFD01F0CCFCFF
:10034000FEE700BF0E20054030800440823F0400DD
:100350000100002B88ED00E0002008E0030000858C
:1003600002D0074000E00740B04B0020F0F800004A
:1003700030410020B04B0020D8EC0020003C002091
:100380000000000000E400E064E400E008ED00E0AC
:10039000005006400040064001E007404480044011
:1003A0000000060204800440C010070010D0034083
:1003B00014D0034014E000E01FBF02000000202022
:1003C0008CAF9C5D1CE00340A5C3945A00F007402D
:1003D000FFFFFFFFFFFFFFFFFFFFFFFFFFFFFFFF2D
:1003E000FFFFFFFFFFFFFFFFFFFFFFFFFFFFFFFF1D
:1003F000FFFFFFFFFFFFFFFFFFFFFFFFFFFFFFFF0D
:10040000FFFFFFFFFFFFFFFFFFFFFFFFDEF9FFFF23
:1004100010B5054C237833B9044B13B10448AFF33E
:1004200000800123237010BDB04B002000000000AD
:10043000ECF80000084B10B51BB108490848AFF3B1
:1004400000800848036803B910BD074B002BFBD0A0
:10045000BDE81040184700BF00000000B44B00206A
:10046000ECF80000B04B002000000000F0B4074B97
:10047000074E084C0849094A1879002701253770AA
:10048000257008701070F0BC704700BFF44B00205E
:10049000E84B0020F24B00201F8000401C800040F1
:1004A000F0B4074B074E084C0849094A1879002751
:1004B00001253770257008701070F0BC704700BFC0
:1004C000004C0020F04B0020F14B00201F8000402A
:1004D0001C80004010B5044601F020FB204610BDF2
:1004E00070B5012182B00D2001F05EFF00210E20C9
:1004F00001F05AFF0021242001F056FF01210D20B8
:1005000001F052FF284B2949294A2A4C2A4E202023
:10051000186040F6B7300B78002B3ED02378DB070D
:100520003BD5136835685B1B0E2B36D91421234845
:1005300002F0F0FF224801F00DFB2821214802F0D3
:10054000E9FF1F4801F006FB44F6206200211E4827
:1005500004F040FE44F6206200211C4804F03AFEFC
:1005600044F6206200211A4804F034FE44F620626A
:100570000021184804F02EFE44F62062002116489F
:1005800004F028FE44F620620021144804F022FE04
:100590000C2001F0F9FE02B070BD13680193019BBD
:1005A0008342B8D9C2E700BF88F00F4050E900206D
:1005B0006CE8002068E90020D0EC0020A0F10000E9
:1005C0004C410020B8F100000002FF1F2050FF1F27
:1005D0000C4C0020409EFF1F60ECFF1F409A002043
:1005E0002DE9F04F2DED028B44F6206283B00021FF
:1005F000BC48DFF830A3BC4C04F0ECFD002144F60D
:100600002062BA4804F0E6FD9AF80010012940F291
:1006100045812068002200F073FDB54DDFF8089396
:1006200029782068DFF80483AF4F002200F004FD32
:1006300099F8001020684FF0FF3200F02FFD98F875
:10064000001020684FF0FF3200F000FD2E78002EE1
:1006500040F0FC80A74BDFEDA87A93ED008AB4EE62
:10066000E78AF1EE10FA00F3FE803F683146384623
:1006700000F0F6FC9FEDA17AC8EE077A33463246C9
:1006800007EE100AB8EE477A384667EE877AFDEE35
:10069000E77ACDED017ABDF9041000F01DFD984F09
:1006A000984E39782068DFF840B2002200F0E2FC72
:1006B00031782068002200F0E7FC9AF80010DBF89F
:1006C0000000012940F2E680012200F019FD29789E
:1006D0002068DFF814A2012200F0AEFC99F80010A7
:1006E00020684FF0FF3200F0D9FC98F80010206825
:1006F0004FF0FF3200F0AAFC2D78002D40F0B880BA
:100700007C4BDFED7D7A93ED008AB4EEE78AF1EE63
:1007100010FA00F3BA80DAF800800121404600F0B8
:100720009FFC9FED767AC8EE077A2A46012307EEF2
:10073000100AB8EE477A404667EE877AFDEEE77A10
:10074000CDED017ABDF9041000F0C6FC39782068BF
:100750006D4FDFF8DC81012200F08CFC31782068DD
:10076000012200F091FC6948694903685D4A1960FB
:1007700000249C8001791A6101F1804101F5043166
:100780004FF0020C012242F21076DFF8A8E1DE837E
:10079000A825DE82DA719A71C3F808C0DC60A3F87C
:1007A00014C0C3F818E00C700D70D0F800900379F5
:1007B000B9F81C00574D591101FA0CF180B240EA0A
:1007C0000C0001F16041A9F81C0001F5614103F141
:1007D000100903F01F0302FA03F03B6845F8298073
:1007E0000860DFF854814149C3F80080C3F818E07D
:1007F00019619C80DA71DC60A3F814C09A71C3F8A7
:1008000008C0DE83DE823B79434E03F1804303F56B
:100810000433A9211C70197039793C684B11A08BE5
:1008200003FA0CF303F1604301F01F0703F5614382
:10083000103180B2BA4040EA0C00A08345F8216034
:100840001A6003B0BDEC028BBDE8F08F012E7FF47F
:1008500026AF284BDFED317A93ED008AB4EEE78ABC
:10086000F1EE10FA2CDD0021206800F03FFC16E7C5
:10087000012D7FF46BAF1F4BDFED287A93ED008ADB
:10088000B4EEE78AF1EE10FA0DDD0121206800F0E8
:100890002DFC5BE7012100F03DFC18E700212068FA
:1008A00000F038FCB9E6DAF800802946404600F04E
:1008B000D7FB9FED1B7A2B46C8EE077A002236E75E
:1008C0003E680021304600F0CBFB9FED157AC8EE64
:1008D000077A00231A4607EE100A3046B8EE477A28
:1008E000D3E600BF0002FF1FEC4B0020409EFF1F1D
:1008F000349A00203C4100205C8F524033335340F7
:100900004341002040410020004C0020F44B0020D7
:1009100010B00340003C0020A1040000EC51983FBF
:100920009A99993F34410020E04B0020414100203A
:100930006D040000E0B1FFFF10B00B402DE9F04165
:100940001E4C1F4D2368DFF898E01E491E4A1F4FBA
:10095000D3F854011E4BDFF88C8001262E70002541
:100960008EF800500D700E213E7015701D7000F055
:100970002BFF2368D8F80010D3F85401154F00F06E
:1009800063FF2946206800F093FB134B1B793B70F3
:1009900023682421D3F8580100F016FF2368D8F803
:1009A0000010D3F8580100F04FFF3146206800F0E6
:1009B0007FFB0A4B1B793B70BDE8F081EC4B0020BC
:1009C000E84B002060E80020F14B0020F04B0020B5
:1009D000CC4B00201B800040F44B0020004C00203A
:1009E000F24B00203841002070B5124B124A134ED2
:1009F0001B79134D0024146033702146286800F0E1
:100A000061FB2B68D3F8540101F00AF80D4B0E4A34
:100A10000E491B790C70146033702868012100F0B6
:100A200051FB2B68D3F8580100F0FAFF084B1C70FB
:100A300070BD00BFF44B0020106003401A800040DE
:100A4000EC4B0020004C002038600340E84B0020B5
:100A5000F04B00202DE9F04101F0ACFC01F0AAFCC4
:100A60000D4D0E4CDFF8448007462A7823780A4E55
:100A7000DBB272B96BB901F09DFCC01B4045F4D9E3
:100A8000074B327807491B780748BDE8F04101F071
:100A900079B8BDE8F08100BFF24B0020F14B002097
:100AA000E84B0020E4F100004C410020E0C81000B9
:100AB00010B5030A1A0982B0092A03F00F03ADF832
:100AC00006008CBF02F1370002F13000092B8CBF09
:100AD00003F1370403F1300402F0A0FD204602F0D8
:100AE0009DFD9DF806301809092803F00F0394BFF7
:100AF00030303730092B94BF03F1300403F1370451
:100B000002F08CFD204602F089FD02B010BD00BF4E
:100B1000144B1B7870B50C4616467BB9914298BFB2
:100B200000EB41051BD835F8020BFFF7C1FF01347C
:100B30000D4801F00FF8A642F5D270BD914298BF62
:100B400000EB41050CD835F8021B074801F068F8A6
:100B50000134054800F0FEFFA642F4D270BD70BD1E
:100B600070BD00BF424100204C4100202DE9F843F8
:100B70002DED028B01F01EFCB74AB84C13682060C3
:100B8000C31AC72B41D8B64AB6491368C31A8B4259
:100B900015D9B54F10603E6806F5AC7506F5B07610
:100BA00055F8043FDC8AA4B26CB9AE42F8D13B6878
:100BB000D3F85C11D3F860210023CB82D382BDEC43
:100BC000028BBDE8F88393F81880A848032102F04F
:100BD000A1FC414600230A22A54800F0E1FF0821BC
:100BE000A44802F097FC202C00F0B58013D8042C08
:100BF00053D044D9082C00F0A480102C40F09C80E5
:100C000018219D4802F086FC3FE0106002F058FC7D
:100C100088B92068B7E7802C44D029D9B4F5807F03
:100C200000F09480B4F5007F40F086800B2193485B
:100C300002F070FC29E002F007FC914D01468C485F
:100C4000296000F0EDFF8A4800F084FF2B68732BC9
:100C500000F08680632B2AD0702B00F0E780612B98
:100C6000D7D142F20F7200218648FFF751FFD0E73B
:100C7000402C61D11C21844802F04CFC05E0022C80
:100C80005AD10B21814802F045FC0721804802F02F
:100C900041FC774800F05EFF87E709217D4802F0BC
:100CA00039FCF2E70A217C4802F034FCEDE77B4B8B
:100CB0001A78012A00F0B7801B78022B00F0B3806D
:100CC000FFF78EFC0F217648674F02F023FC68483F
:100CD00000F040FFFFF732FE0E21724802F01AFCCE
:100CE000634800F037FFFFF7B5FE0D216E4802F0B4
:100CF00011FC5F4800F02EFFFFF776FE0D216B48D8
:100D000002F008FC5A4800F025FF3B6803F5AC767A
:100D100003F5B07856F8043FDD8AADB2002D5AD104
:100D2000B045F7D13B682068D3F85C11D3F8602157
:100D30000023CB82D38226E707215D4802F0EAFB3D
:100D4000A3E70B215B4802F0E5FB9EE709215A4827
:100D500002F0E0FB99E70F21584802F0DBFB94E733
:100D6000DFF87491564FD9F80030564EDFF86081A5
:100D70009FED558A4D4607E02B60544909204FF4FA
:100D800007720860013AFDD13A6841F6BB0101FBE8
:100D9000023306EB8303D3ED007AB0EE487AA7EE78
:100DA000887A4220FDEEC77A17EE901A01F04CF9CE
:100DB000D9F800300133B3F5FA7FDDD1D8F800203F
:100DC000434901320023012AC8F800202B60D4D106
:100DD0000B602068D7E693F818902448032102F0AE
:100DE00099FB494600230A22214800F0D9FE082138
:100DF000204802F08FFB202D00F088801ED8042DA3
:100E000000F08E806AD9082D7BD0102D74D1182166
:100E1000194802F07FFB07211D4802F07BFB1448B4
:100E200000F098FE7CE7FFF7DFFD49E7294842F232
:100E30000F720021FFF76CFE2068A4E6802D6AD0B7
:100E400053D9B5F5807F70D0B5F5007F54D10B2113
:100E50000A4802F05FFBDEE7E44B002064E8002074
:100E60002C9A00209F860100EC4B002034F20000F9
:100E70004C41002038F2000074F20000CCF2000077
:100E80003C9A0020409EFF1FA0F2000044F20000A8
:100E9000E0F2000050F2000068F20000E84B002091
:100EA000F4F1000004F2000014F2000024F200004B
:100EB000D8F200005CF20000C0F2000090F20000E6
:100EC000309A0020B48E0000171D9B44389A0020F1
:100ED000084C00200002FF1FFC4B0020022D0BD10C
:100EE0000B21144802F016FB95E7402D04D11C217C
:100EF000114802F00FFB8EE70721104802F00AFBB1
:100F000089E70B210E4802F005FB84E70F210D480D
:100F100002F000FB7FE70A210B4802F0FBFA7AE7B8
:100F200009210A4802F0F6FA75E70921084802F09B
:100F3000F1FA70E744F20000A0F20000D8F20000DD
:100F40005CF2000090F2000068F2000050F2000035
:100F5000C0F200002DE9F8434FF4B27000F0D8FF62
:100F6000DFF86C80134C144F144E154D814600F081
:100F700031F8144B40460021C3F8009000F068FDA2
:100F800022463946404603F0A9FD3046002100F0D4
:100F90005FFD22463946304603F0A0FD28460A4947
:100FA00000F086FE224628460849BDE8F84303F0D3
:100FB00095BD00BF30410020D5040000004C00204A
:100FC000D04B0020EC4B002040F20000311C000010
:100FD000F44B002038B5124A124B00F1A80500214D
:100FE000044600F0E1FA28460F4B104A012100F0B8
:100FF000DBFA0F490F4A022384F850310B68C4F81A
:10100000585143F00063C4F86051C4F85441C4F827
:101010005C410B60136843F000632046136038BDE9
:101020003CF30000C4F3000038F3000080F300003C
:101030003C80044030800440012A03D0D0F85401A1
:1010400000F072B8D0F8580100F06EB8012A03D051
:10105000D0F8540100F03EB9D0F8580100F03AB988
:10106000012903D0D0F8540100F08EB8D0F858010F
:1010700000F08AB8012A03D0D0F8540100F072B908
:10108000D0F8580100F06EB9012A03D0D0F854010D
:1010900000F0F8B9D0F8580100F0F4B9012A03D0F3
:1010A000D0F8540100F072B8D0F8580100F06EB8D2
:1010B000012903D0D0F8540100F034BBD0F8580116
:1010C00000F030BB012903D0D0F8540100F038BB48
:1010D000D0F8580100F034BB012B03D0D0F85401F4
:1010E00000F036BBD0F8580100F032BB012903D024
:1010F000D0F8540100F03EBBD0F8580100F03ABBE4
:10110000012A03D0D0F8540100F03CBBD0F85801BC
:1011100000F038BB012903D0D0F8540100F034BBF3
:10112000D0F8580100F030BB90F821308B421BD032
:10113000012970B419D051B9104A114B11701970AE
:10114000036D80F821105B0103F18443196072B6CE
:10115000436D5B0103F18443012200214276D96192
:101160009A61DA6162B670BC7047064D034A044B5F
:101170006026E1242E701470E1E700BF01400740B3
:101180004000FA4200400740C069704738B5437ECE
:1011900004460D46DBB9636D012D4FEA431303F19D
:1011A00084431DD90121042D996009D9082D23D923
:1011B000102D1AD920225960196084F8202038BDDA
:1011C000002104225960196084F8202038BD00F005
:1011D0001BF8636D012D4FEA431303F18443E1D8FB
:1011E00000229A6084F8202038BD00221A60102264
:1011F000596084F8202038BD00200822196058600A
:1012000084F8202038BD00BFF8B5436D5B0103F1C1
:1012100084430446DA6942B102F080FA636D5B01EF
:1012200003F18443DA69002AF6D19B6923B1E38A8A
:101230009BB243F00203E38272B6637E002B36D08A
:10124000E16E236F626F0F68A06F1B68E16F166815
:101250000568D4F8802009681268206E3B44334446
:101260002B440B441344C3F34E03D4F88850D4F8F2
:101270008C10D4F8902043F4004303602F68D4F816
:1012800094000B681668D4F898100568D4F89C2070
:1012900009681268606E3B4433442B440B4413448A
:1012A000C3F34E0343F4004300220360627662B648
:1012B000A37E6BB10221204600F054F802212046A3
:1012C00000F0E0F804212046FFF760FF0023A3763A
:1012D000F8BD00BF38B5C37E8B4211D0437E0446B3
:1012E0000D466BBB092D0CD8A36B5B0103F1844346
:1012F00000210822D960FF209960E276E06138BDC4
:1013000038BD0B2D1FD90D2D0DD8A36B5B0103F13B
:10131000844301229A6000200C22D86040F6FF71BD
:10132000E276E16138BDA36B5B0103F184430121E7
:101330001022D9604FF6FF709960E276E06138BD07
:10134000FFF762FFCEE7A36B5B0103F1844300224A
:101350009A6001200A22D86040F2FF31E276E16112
:1013600038BD00BF90F823308B4258D070B5437E13
:1013700005460C46002B35D1A31F032BEA6B17D96A
:10138000520102F184420020D060002C2DD1AB6BC1
:1013900094605B0103F1844301221146DA61164631
:1013A0000020196058605A619E6185F8234070BD25
:1013B000AB6B52015B0103F1844302F184420121D2
:1013C0000020062CD160596019609861586127D0BF
:1013D000072C2AD0082C0CBF90609160D86185F84A
:1013E000234070BDFFF710FFC6E7012C0DD0022C83
:1013F00029D0032C31D0042C3AD0052C18D0EB8AFC
:101400009BB243F00103EB8270BDAB6B90605B015C
:1014100003F184432146DC6126462246C0E770473B
:101420009060D96185F8234070BD9160D961BCE7B7
:10143000AB6B5B0103F184430126966001463246A3
:10144000D8610646ACE7AB6B90605B0103F1844367
:101450000126D86101463246A2E7AB6B5B01012150
:1014600003F184430E4691600146D861324697E706
:10147000AB6B5B0103F18443012696600146D861A2
:1014800002468DE738B5437E04460D467BB9042DF0
:101490000AD8DFE805F00F1F2F3F0300A36B5B01A5
:1014A00003F1844300221A6184F8245038BDFFF709
:1014B000ABFEECE7A26BE36B52015B0103F18443EB
:1014C00002F184420021012010615960196084F802
:1014D000245038BDA26BE36B52015B0103F18443DE
:1014E00002F184420121002011611960586084F8E2
:1014F000245038BDA26BE36B52015B0103F18443BE
:1015000002F184420121002011611860596084F8C1
:10151000245038BDA26BE36B52015B0103F184439D
:1015200002F18442012111615960196084F824504C
:1015300038BD00BFC36B5B0103F18443022270B569
:1015400005210026012580F82120042280F824208E
:10155000044680F82310C676C66180F8206046767F
:10156000C682467580F8225031461D61FFF7DCFDCA
:101570000A21FFF7AFFE2046A5762021FFF706FEE1
:1015800029462046FFF7EEFE29462046FFF77AFF60
:1015900072B6636D65765B0103F18443DE619D6124
:1015A000DD6162B670BD00BFF8B504468262C362F9
:1015B000017600294CD04D4B23631C33E3644C4F20
:1015C0004C4E4D4D4D484E494E4A67631833A36605
:1015D0002033A663E56320646164A264C4F88430A8
:1015E0001C371C364435183018311832A3F5052342
:1015F00027656665A565E065216662661837183659
:10160000103D1C301C311C321C3BE76626676567A9
:10161000A067E167C4F8802020312032C4F8A030F0
:1016200020374923203620352030C4F89400C4F8F0
:1016300088702046C4F88C60C4F89050C4F89810A4
:10164000C4F89C2084F8A430FFF774FF2046F8BD4E
:101650002D4B23631C33E3642C4F2D4E2D4D2E4810
:101660002E492F4A67631833A3662033A663E563C8
:1016700020646164A264C4F884301C371C3644358D
:10168000183018311832A3F5A04327656665A565A3
:10169000E0652166626618371836103D1C301C3133
:1016A0001C32443BE76626676567A067E167C4F8BC
:1016B000802020312032C4F8A03020372723203664
:1016C00020352030C4F89400C4F888702046C4F84F
:1016D0008C60C4F89050C4F89810C4F89C2084F82A
:1016E000A430FFF727FF2046F8BD00BF00B00B4035
:1016F00004B00B4008B00B400CB00B4010B00B40D6
:1017000014B00B4018B00B4000B0034004B00340CD
:1017100008B003400CB0034010B0034014B00340C5
:1017200018B00340437E10B504460BB1FFF76CFDC3
:10173000236D5B0103F1844301229A6010BD00BF59
:10174000036D5B0103F1844300229A60704700BF80
:10175000437E70B505460E4614460BB1FFF754FDA7
:101760002B6DAA6C5B0103F18443012159611C615B
:10177000166070BD036D5B0103F1844300225A6162
:10178000704700BF704700BF012380F822307047C8
:10179000836AC26B5B5C5201190602F184424CBF42
:1017A00000210121116172B6016B4A0102F18442EC
:1017B00003F01F039269003218BF012203EB82136A
:1017C0000B6062B6704700BF432938B5044630D875
:1017D000836A5B5C03F01F031F2B2AD0437E0D46F8
:1017E000002B2DD1236D5B0103F18443DB690033B2
:1017F00018BF0123237583B172B6226BA36B1268E5
:1018000022601A68E36BE2601A68236D22611A682D
:10181000636D62601B68A36062B6636D5B0103F178
:101820008443002220462946DA60FFF7B1FF0120F9
:1018300038BDE38A9BB243F00403E382002038BD45
:10184000FFF7E2FCCEE700BF534B1A68520203D405
:101850001A6842F480021A60504B4A1E9A4257D8C6
:101860000133B3FBF1F1B1F5803FF0B438D34C4B09
:1018700099424ED94B4B994251D94B4B994253D92E
:101880004A4B994255D94A4B994258D9494B9942AA
:101890005AD9494B99425DD9484B99425FD9484B37
:1018A000994262D9474B994264D9474B99426CD9C6
:1018B000464B994263D9464B464A474F994245F6B3
:1018C000AF7344F6AF7685BF17461E460423052343
:1018D0000224424AD940A2FB0131C908E14002E09A
:1018E0003F4F40F6A376036D3E4DD0F8A0003E4C2E
:1018F0005B0103F1844301229A6101393B4B2A6069
:1019000089B221601E601F60F0BC40F201120260CB
:101910007047374F41F6A3760123D940E3E7354FAF
:1019200042F6A3760223F8E7334F43F6A376032368
:10193000F3E700231C46314F40F6A776C9E7304F46
:1019400044F6A3760423E8E72E4F40F6AB76002357
:101950000124BEE72C4F45F6A3760523DDE72B4F88
:1019600040F6AF7600230224B3E7294F46F6A3766C
:101970000623D2E7274F47F6A3760723CDE7264F66
:1019800044F6AB7604230124A3E7244F44F6A7765C
:10199000042300249DE700BF3C800440FF8693039E
:1019A000FDFF0100FBFF0300F7FF0700F5FF090043
:1019B000EFFF0F00EBFF1300DFFF1F00D7FF270033
:1019C000BFFF3F007FFF7F005FFF9F00BFFE3F0123
:1019D0007FFD7F02AE5F0100AE4F0100CDCCCCCCCD
:1019E000A20F01000C60034004600340006003404C
:1019F000A21F0100A22F0100A23F0100A60F0100BB
:101A0000A24F0100AA0F0100A25F0100AE0F01006A
:101A1000A26F0100A27F0100AA4F0100A64F0100A2
:101A2000094B1B6813F4800308D0036D07495B0161
:101A300003F1844300220A609A617047026D5201EB
:101A400002F18442936170473C800440006003408F
:101A5000F0B572B699B902688AB103790F2B0ED826
:101A6000284C218841FA03F5ED070AD503F10073EC
:101A700003F59063B2EB431F03D162B6F0BD214C76
:101A80002188002341FA03F212F0010207D001334A
:101A9000102BF7D162B6002203710260F0BD012560
:101AA0009D402943218062B6174E184D184FDFF82C
:101AB00068E0D9B20171346844F0020434602C68E3
:101AC00044F002042C60A6F5802640F28244A5F57D
:101AD000802503F100733C6003F59063223E243DB2
:101AE0000C4C8EF800105B0131702970217003607E
:101AF0001A605A609A60DA601A615A619A61DA6112
:101B0000F0BD00BF68E80020408004403C800440F5
:101B1000008000401F8000401A80004003790F2B96
:101B200012D80A4A10B4137072B6094904790A88A7
:101B30000123A34022EA03030B8062B61022002394
:101B40005DF8044B02710360704700BF1A800040CB
:101B500068E8002000B5064A036812885B6883B015
:101B600001A9ADF804200222984703B05DF804FBF8
:101B7000C8F3000010B5036814465B689847204618
:101B800010BD00BF0EB400B582B003AA52F8041B0A
:101B9000019203F089FE02B05DF804EB03B07047D8
:101BA000F0B507468BB0002A33D0012A08BF0A22BD
:101BB00051B3212400E0F4B2B1FBF2F502FB1511A0
:101BC000C8B2092900F1300198BFC8B20AA988BF7C
:101BD0003730214488BFC0B201F8240C661E294664
:101BE000002DE8D133B1013CE4B20AAB23442D22ED
:101BF00003F8242C3B6801AA11195B683846C4F12C
:101C0000220298470BB0F0BD30228DF82520212408
:101C1000E8E70368C9B21B6898470BB0F0BD00BF86
:101C20000029BABF49422D2300230A22FFF7B8BF7B
:101C300010B50446006802F093FF204610BD00BFB7
:101C400038B543688B4201D3012038BD0D460446A8
:101C50000131006803F010FB0028F6D0A36884E887
:101C60002100002BF0D10370EEE700BFF8B5044669
:101C7000154632B9036803B11A700023A3602046E9
:101C8000F8BD0E461146FFF7DBFF074648B920684E
:101C900010B102F065FF276000236360A360204657
:101CA000F8BDA5603146206803F0F0FCE7E700BF0F
:101CB00038B500230446036043608360037341B179
:101CC00008460D4603F05CFD294602462046FFF714
:101CD000CDFF204638BD00BF08B5FEF701FCFEF77A
:101CE00045FF01F01BFDFAE7844641EA000313F0CB
:101CF00003036DD1403A41D351F8043B40F8043B13
:101D000051F8043B40F8043B51F8043B40F8043BD5
:101D100051F8043B40F8043B51F8043B40F8043BC5
:101D200051F8043B40F8043B51F8043B40F8043BB5
:101D300051F8043B40F8043B51F8043B40F8043BA5
:101D400051F8043B40F8043B51F8043B40F8043B95
:101D500051F8043B40F8043B51F8043B40F8043B85
:101D600051F8043B40F8043B51F8043B40F8043B75
:101D700051F8043B40F8043B403ABDD2303211D315
:101D800051F8043B40F8043B51F8043B40F8043B55
:101D900051F8043B40F8043B51F8043B40F8043B45
:101DA000103AEDD20C3205D351F8043B40F8043B15
:101DB000043AF9D2043208D0D2071CBF11F8013B13
:101DC00000F8013B01D30B8803806046704700BFD9
:101DD000082A13D38B078DD010F003038AD0C3F1E8
:101DE0000403D21ADB071CBF11F8013B00F8013BCA
:101DF00080D331F8023B20F8023B7BE7043AD9D389
:101E0000013A11F8013B00F8013BF9D20B7803705D
:101E10004B7843708B7883706046704708B5104CE0
:101E200008E0236859050DD423681A050FD42368E8
:101E3000DB0411D423685803F3D500F0C1FC2368F8
:101E40005905F1D501F08EFE23681A05EFD501F092
:101E50001FFF2368DB04EDD501F0B0FFEAE700BF08
:101E60003480044008B5FFF7D9FF00BF014B1022B2
:101E70001A80704700200540704700BF094908B527
:101E80000B6830B16A461844A2F50052904202D263
:101E90000860184608BD02F02DFE0C2303604FF0C9
:101EA000FF3008BD44410020084A1378802B01D040
:101EB000002070470649074B074808600021197049
:101EC0001378802BFCD00120704700BF03E007404F
:101ED0004480044001E0074000002822094A1378AA
:101EE000012B01D00020704703F1804303F5FC2350
:101EF000602119701378802BFCD1034B034A1A60C0
:101F00000120704703E007404480044000000602BF
:101F100002F01EBEF0B44D1E2E46002400E0013437
:101F2000B0FBF2F302FB1300092800F130078ABF6F
:101F30003730F8B2C0B206F8010F1846002BEED1C8
:101F40000A1953704CB1107815F8016F28700133DD
:101F5000E01A834202F80169F5DB0846F0BC7047DD
:101F600010B4114B53F8302092F8804234B1012361
:101F700079B182F880305DF8044B704703EBC00301
:101F80005B681A6851B922F002021A605DF8044BCE
:101F9000704782F800315DF8044B704742F003024D
:101FA0001A605DF8044B7047CCF300001C4A02EB4A
:101FB000C00301295B6811D004291BD052F83000FE
:101FC000002280F8802229B1022920D0032922D0C2
:101FD0001A6070474FF480721A60704752F83000F0
:101FE0004FF4A27280F880121A601A6822F0200260
:101FF0001A60704752F830104FF4A272012081F835
:1020000080021A601A6842F020021A60704740F29B
:1020100003121A6070474FF481721A60704700BF54
:10202000CCF3000030B4054B054D064C00221021C6
:102030001A602A602060196030BC704714D00340D9
:1020400004D0034000D0034038B5A0F14203012B77
:10205000044624D900297ADD994B1B78012505FA1D
:1020600003F28A4202D83F282CD938BDC21E012A69
:1020700030D9A0F11D02012A78D90E285BD9A4F12C
:102080002302032A5CD9A4F11002012A94BF8D4ACD
:102090008D4A126802FB011222FA03F320E0884BFA
:1020A0001B780B2B0AD90C2B1CBF0C3B1941422C63
:1020B000084657D0BDE8384001F026BDC3F10C03F7
:1020C0009940F4E72946FFF74BFF2946BDE8384021
:1020D000FFF76CBF7D4A126802FB011222FA03F37C
:1020E000A21E242A00F2E380DFE812F0DA00D30017
:1020F000CC00C500BE00B700B000A900A200E100FE
:10210000E100E1009B00E10094008D00E100E100AE
:1021100086007F0078007100E100E100E100E1004D
:10212000E1006A006300E100E100E100E1005C0021
:1021300055004E00470044F28412C240D2079ED59B
:10214000634A126802FB011222FA03F3C8E73F2830
:102150008BD80021FFF704FF20460121BDE838405D
:10216000FFF724BFBDE8384001F0B0BC594A1268FF
:1021700002FB011222FA03F3B2E75749574A0B60F8
:102180004FF45173136038BD5549564A0B604FF4F4
:102190005173136038BD5449544A0B604FF4517366
:1021A000136038BD5249534A0B604FF451731360AA
:1021B00038BD5149514A0B604FF45173136038BD1B
:1021C0004F49504A0B604FF45173136038BD4E496C
:1021D0004E4A0B6040F24443136038BD4C494D4AAF
:1021E0000B6040F24443136038BD4B494B4A0B60CF
:1021F00040F24443136038BD49494A4A0B6040F2FB
:102200004443136038BD4849484A0B6040F2446378
:10221000136038BD4649474A0B6040F2446313607F
:1022200038BD4549454A0B6040F24443136038BD10
:102230004349444A0B6040F24443136038BD42496D
:10224000424A0B6040F24443136038BD4049414A62
:102250000B6040F24443136038BD3F493F4A0B6076
:1022600040F24443136038BD3D493E4A0B6040F2A2
:102270004443136038BD3C493C4A0B6040F2444340
:10228000136038BD3A493B4A0B604FF451731360F9
:1022900038BD3949394A0B604FF45173136038BD6A
:1022A0003749384A0B6040F24443136038BD3F2C35
:1022B0003FF6DBAE7F29D4BF00210121204649E74C
:1022C0004841002008900C400880034008900340DB
:1022D00008900B4008800B4048900B402CB0044005
:1022E00040900B4028B0044038900B4024B004408C
:1022F00030900B4020B0044018800B404CA00440AC
:1023000010800B4048A004401880034008B00440EF
:102310001080034004B004404080034018C00440D3
:102320003880034014C0044018900C4004A00440BE
:1023300010900C4000A0044018900B4004C00440D2
:102340002880034010B00440208003400CB00440BB
:1023500028900B400CC0044020900B4008C0044063
:102360003080034010C00440488003401CC004403B
:102370001890034034900440109003403090044083
:1023800010900B4000C0044038B1102828BF102026
:10239000044AC3B2107813707047024A01231078C0
:1023A00013707047484100203F2801D8FFF7FEBD59
:1023B000704700BF72B60D490D4B0E4A1B68086886
:1023C000126862B6520102D5322B88BF0130C3F5C4
:1023D0002F33094903F21F334FF47A729B08A1FB94
:1023E000031302FB00F000EB930070476CE8002041
:1023F00018E000E004ED00E0176CC1162DE9F84389
:10240000054672B6224F234B234A1B683C6812686C
:1024100062B6520102D5322B88BF0134B5B3C3F581
:102420002F3303F21F331D4EDFF86890DFF868800A
:102430009B084FF47A72A6FB031302FB04F404EB2F
:10244000930472B6D9F800103A68D8F800E062B682
:10245000C1F52F3303F21F339B08A6FB03031EF0C5
:10246000806FC4EB93034FF47A7002D0322988BF97
:10247000013200FB0233B3F57A7F04D3013D05D06E
:1024800004F57A74DDE701F049F9DAE7BDE8F8838D
:102490006CE8002018E000E004ED00E0176CC116C5
:1024A000F8B54E4B4E48DFF85CC14E4C4E49DFF854
:1024B00058E14E4E4E4D4F4F4FF000621A604FF0B4
:1024C00080521A604FF000521A604FF080421A603A
:1024D0004FF000421A600022026028234EF6FF707F
:1024E000CCF80000CEF8003023600EF5012E0B6012
:1024F00033602B6006F500263B6005F50025A362DE
:1025000007F500278B6204F5012401F5012106F689
:10251000E87605F6E87507F57F6710310EF1100EC5
:10252000203433602B60CEF800303B600B602360BA
:10253000314CBB618B6109212160A7F5002704F5AF
:102540008054203F08343A602060BB60E36047F865
:10255000041C04F5FD2407F5FE27043704F2FC747F
:1025600022603860A360FB6044F8041C083404F661
:10257000FC74C7F8FC2F2060A4F5E124A4F2DC74FD
:1025800033602B60C7F8F81F21681C4841F40071C4
:10259000216001681A4C0EF57F4E0EF1E80E07F52A
:1025A000883706F5803605F5803541F00071016009
:1025B000CEF8002047F6FF710822396033602B60A7
:1025C000226001F013FA1920FFF718FF00F060FEF7
:1025D00040F21310BDE8F840FFF710BF04E100E03F
:1025E00004800340148003401C8003402480034087
:1025F0002C8003403480034000800340048004406A
:1026000000900C40088003400C800340431E032BC5
:1026100014D872B60A4951F8230068B170B4094C55
:10262000058834F81320466841F82360521B24F8CB
:10263000132062B670BC704762B6704700207047C6
:10264000C8E80020C0EC0020013803280BD872B67F
:10265000074B53F8203043B100205B680130002B5A
:10266000FBD162B67047002070471846F9E700BFFB
:102670001CE9002030B472B62B4A13781D0706D52A
:102680002A4B196A002936D0996A002941D053781B
:102690001C0706D5254B196C00293ED0996C0029E2
:1026A00039D09378190705D5204B196E002936D0FB
:1026B000996E89B1D3781B0707D51C4BD3F88020BE
:1026C0007AB3D3F8882011213AB162B6184B0022B0
:1026D0001A7030BC00F092BE0D21154C154D2278B9
:1026E00043F8315003EBC1030830013A58602270BF
:1026F00062B630BC704704220D4C0F4D217843F870
:10270000325003EBC20308304A1E5860227062B692
:10271000EFE70521E1E70921DFE70822ECE70C22DA
:10272000EAE71022E8E700BFF4F500000000FF1F11
:1027300045E90020C800400088004000431E032BEC
:102740001DD81B4A400140F0100030B4104472B64E
:10275000184CE25C032A1BD8DFE802F002121517BE
:1027600003220D88E25410F0080F14BFC8238823F9
:1027700043EA054308310360416062B630BC7047EC
:1027800008300222EDE70522EBE708300422E8E7F3
:10279000094A52F8230038B1084A52F82300416030
:1027A00042F8231062B6E9E742F82310034AF7E73C
:1027B0000000FF1F54E900201CE900202CE9002044
:1027C0002DE9F04FDFF80CB3DFF80CA387B044E03D
:1027D000AB4F4FEA930807EBC809013ED9F8042034
:1027E00003F00803F6B2A2F1080003F0FF04002B87
:1027F00040F0028157F838301B0C99B222F8081CBF
:10280000002B00F0F0809F4B22F8064C42F8044C5D
:1028100053F82620002A00F0C5829B4D55F826303B
:1028200058609A4C45F8260034F81630194424F8BC
:10283000161000F0C3FD002800F0AD82944A954BBD
:1028400019F0080F00F1080018BF1346C9F804007A
:1028500047F8383008238BF800309BF80040E4B28A
:1028600061071AD58C4B1B78A3B18C490A7802F00A
:10287000FF0322B1013BDBB20B7003B900BE8849F4
:102880000A7802F0FF032AB1013BDBB20B70002B88
:1028900000F0578204238BF8003004F0080303F0A3
:1028A000FF02002B00F0CC809AF80030DBB21E094A
:1028B0008ED19C08DFF8C89159F8342009EBC40187
:1028C000C2F38302013A49680C2A00F28880DFE8EB
:1028D00002F07C7C8686868686864786868607000A
:1028E0000868704D4A68704F704E286081B240F29F
:1028F0008160674B6A604FF0010E0022814249F807
:1029000034303A60C9F81020C9F8182086F800E081
:102910005B4C00F2E380B1F5D06F80F04683B1F5F7
:10292000817F00F0FC8200F28D82802900F07783A5
:10293000822940F0FA82A98801F07F01042900F27F
:10294000F4825B485B4C8900084422706270027814
:10295000930740F1588484F800E04FF0020E42E300
:10296000514F3A6832B3544B504E5449188834781A
:102970000D784028864645F0020828BF4FF0400EEB
:10298000002C84F001043470CEEB00000CBF8824CE
:10299000C82409EBC80680B285F0010544EA0E445C
:1029A0007260188049F8384072440D70002800F0B9
:1029B00045813A603B4B1A88B2F5A06F0FD10021D8
:1029C0009A7859703E4B1A7009E0364A108842F2E4
:1029D0002102904200F037812D4A49F83420394ACB
:1029E0000123137036E72A4A2A4B19F0080F18BF43
:1029F000134647F838302DE700F000FD324A3349DE
:102A000052F82630002B00F0D18158688C5D42F8D6
:102A1000260003F10802C9F80420032C05D8DFE8DA
:102A200004F02C02292602228A551A8819F0080F70
:102A30000CBF8823C82343EA024347F8383009E72C
:102A4000E00700F18181210600F1F281A20706D59D
:102A50001F4A204913780220DBB213700870E30686
:102A600002D51C4B10221A7007B0BDE8F08F04226B
:102A70008A55DAE705228A55D7E703228A55D4E733
:102A80000000FF1FC8E8002074E80020C0EC002010
:102A9000C80040008800400050E90020D9E800202C
:102AA00058E900203CE9002070E80020D8E8002028
:102AB000C020074048E9002084E8002044E90020C5
:102AC00098200740942007401CE9002054E900208A
:102AD00088200740802007409020074042F22100D4
:102AE000814200F02A8100F2D880B1F5086F00F031
:102AF0007682B1F5106F40F01882226AB349A87847
:102B00000870120600F13A83D9F82820B04913065C
:102B100000F10C83D9F83020AD49150600F101838E
:102B2000D9F83820AA49140600F1F682D9F84020D5
:102B3000A749100600F14A83D9F84820A449120693
:102B400000F13F83D9F85020A149130600F13483E6
:102B5000D9F858209E49150600F12983D9F860203C
:102B60009B49140600F11E83D9F868209849100685
:102B700000F11383D9F870209549120600F10883FB
:102B8000D9F878209249130600F1FD82D9F8802007
:102B90008F49150600F13183D9F888208C49140635
:102BA00000F12583D9F890208949100600F1198396
:102BB000D9F898208649120600F10D838548864A87
:102BC000864901908648874D874C049700230596D7
:102BD000029580460F4616461D460394306828B17C
:102BE000446800F00BFC2046002CF9D10023336030
:102BF000029B38681A46002342F8253028B1446801
:102C000000F0FCFB2046002CF9D100223A60019A2A
:102C100098F800301146002241F8042B039A0191E4
:102C2000023B4FF0000122F81510032B00F22B811C
:102C3000DFE813F07001250170012501BEF1400F9E
:102C400018BF0022B5E6694A0D78487815705070B3
:102C50008D78C8789570D07010680D7915718628B8
:102C60004D7989795571917100F09B816049614E70
:102C70000A78307882F00105002842F002020D70D7
:102C80000CBF8821C82149F8321009EBC20280F03C
:102C900001000021307051609EE642F22120814205
:102CA00040F0CB81544B554C5549A8781D682560A0
:102CB000CDF804E008700020029080468446044667
:102CC0004B490D7845F0020E09EBCE030393019BAF
:102CD000002B039B5C600CBF8824C82444EA0803D3
:102CE00085F0010449F83E3032700C70DFF8E0E006
:102CF000404BDFF8FC80002840F01E81BCF1400F03
:102D00001BD144F0020C09EBCC03029CDFF8C0E0BD
:102D10005C60002A40F02681020442F088029DF89F
:102D200004304EF83C20044433700D702346402894
:102D300003D10020334A3B601080334A01231370D3
:102D40004DE600F0C7FCA5E5214B2F4828491A6144
:102D50004FF0020E80F800E02C4F0A702C491960E9
:102D600099602C4E2C4D2D4C9A610D213970FF210C
:102D70003170DFF8B8E029702270294D294A8EF8A9
:102D800000109F27012406F8047C5D600470DA605F
:102D900007B0BDE8F08F244A47F8380013780133B4
:102DA000137057E543F826000E4D3AE58B5D032B73
:102DB00000F2F08001A252F823F000BF5528000075
:102DC00055280000792E0000732E000050E90020E5
:102DD0000000FF1F2CE90020C8E800201CE90020AB
:102DE00054E9002074E80020C0EC0020C8EC00206A
:102DF00044E90020D8E800206CE80020D0EC002056
:102E000068E9002084E8002094200740C0200740A3
:102E10008800400088200740802007409820074015
:102E200088E80020DCE8002045E900208C200740ED
:102E3000C149C24B80220D2008701A70A2077FF58D
:102E40000EAE05E640F20232914240F0EE80A988D3
:102E500001F07F01042968D86A88002A65D1B64844
:102E6000CDF804E089000844017841F002010170C6
:102E700021E701238B55EDE400238B55EAE44FF065
:102E8000010388F800300135042D06F1040607F12E
:102E9000040708F101087FF4A1AEA94CA94B2278E0
:102EA000A94D049F059E002129701A70130700F197
:102EB00005816278A549DFF8A0820A7010074FF0FB
:102EC0000001C9F83010C9F8381000F1E080A049BD
:102ED000A2780A700021C9F85010C9F858101107DB
:102EE000DFF8748200F10181E2789A499A4C0A7005
:102EF00000211207C9F87010C9F8781000F1B080ED
:102F000033780193002183F00102C9F89010C9F8C9
:102F10009810D0E64FF0000388F80030B3E7A98896
:102F200001F07F01042940F28D80834A0F23137042
:102F30008A4A0123137052E540287FF6E2AE44F03E
:102F400002040EEBC401029E4E60BAB19DF804105B
:102F5000834A19703346403888F8005040334EF8A1
:102F60003420E7E69DF8043033700204029B0D70B4
:102F700042F0C80203444EF83C20D8E69DF8041005
:102F80001970029B774A88F80050403840334EF859
:102F90003420CFE619F0080F0CBF022303238B5512
:102FA00058E4714A0F21117060E6704A5468002C91
:102FB000BBD06888B5F804E003E00C325468002CFC
:102FC000B3D013888342F8D153887345F5D1000AF2
:102FD00003280CBF94F800E0B2F808E003E0644A6C
:102FE000644C12782270E888704580F03F81624915
:102FF0000D784028844645F0020E28BF4FF0400C63
:1030000004EB0C0309EBCE02029301235460CCEBDA
:1030100000004FEA0C4800220193C8245EE6554C9C
:103020004FF0020E22706270DDE7B1F5A06F7FF401
:103030007CAF0123002201933DE642F2213291420E
:10304000F7D072E76A88002A7FF46FAF3A48CDF86C
:1030500004E089000844017821F0020101702AE6A9
:1030600000F0ACF9002800F0EF8008303D4AC4F8C9
:103070008400C4F8802000F0A1F9002800F0DE8070
:103080000830374AC9F88C00C9F8882038E700F0C2
:1030900095F9002800F0C0800830324AC8F8440092
:1030A000C8F8402000F08AF9002800F0AF8008300E
:1030B0002B4AC9F84C00C9F8482008E700F07EF90F
:1030C000002800F0CD800830264AC9F82400C9F84D
:1030D000202000F073F9002800F0BC800830204A5E
:1030E000C9F82C00C9F82820E3E600F067F90028A9
:1030F00000F09E8008301B4AC8F86400C8F86020C1
:1031000000F05CF9002800F08D800830144AC9F8FE
:103110006C00C9F86820E7E6C86B083800F06EF963
:1031200004E5486B083800F069F9F9E4C86A083822
:1031300000F064F9EEE400BFC020074080200740A3
:10314000F4F50000C420074045E90020C8200740EE
:10315000CC200740D02007400000FF1F94200740EC
:10316000C800400088004000D9E80020F8F50000C1
:1031700050E9002048E9002044E90020606A08384E
:1031800000F03CF9C0E4C86F083800F037F9FDE4FE
:10319000486F083800F032F9F2E4C86E083800F0E1
:1031A0002DF9E7E4486E083800F028F9DCE4C86D32
:1031B000083800F023F9D1E4486D083800F01EF912
:1031C000C6E4C86C083800F019F9BBE4486C08384C
:1031D00000F014F9B0E4D1F89C00083800F00EF9C2
:1031E000ECE4D1F89400083800F008F9E0E4D1F8F4
:1031F0008C00083800F002F9D4E4D1F884000838D3
:1032000000F0FCF8C8E44FF0020EECE62A78C9F8AA
:10321000480001322A705AE62A78C8F84000013284
:103220002A703FE72A78C9F8680001322A705BE605
:103230002A78C8F8600001322A7061E72A78C9F854
:10324000880001322A705BE62A78C4F880000132D7
:103250002A7010E72A78C9F8280001322A7028E677
:103260002A78C9F8200001322A7032E7BEF1400FF7
:10327000F44628BF4FF0400C04EB0C0302930123EB
:10328000CCEB0E004FEA0C480022019318E500BF7A
:103290002DE9F04100F078FF314C324B3248DFF835
:1032A000E480324EDFF8E0C0314F324DDFF8DCE031
:1032B00000221A605A609A60DA601A615A619A6153
:1032C000DA611A625A629A62DA621A635A639A631C
:1032D000DA631A645A649A64DA641A655A659A65FC
:1032E000DA651A665A669A66DA661A675A679A67DC
:1032F000DA67C3F880202168C3F8842041F4802174
:103300002160016841F040710160032188F80010DC
:10331000A020C3F307218CF8000004F52834317095
:10332000C3F30740144938701B0E2B70CC34FF23B5
:103330008EF80030114D0CF8B83C11480B70012389
:1033400006F8083C227070264FF40014102207F88B
:103350002C3C2E70046081F8F820BDE8F08100BF9D
:10336000348004400000FF1F00D800409C2007402C
:10337000B0200740B42007401020074035E400E0AB
:1033800004E100E04421074040210740802007403D
:1033900000F0A4B800F07CB800F056B800F090B887
:1033A00000F06CB900F046B90846114600F0B2B81A
:1033B000084600F033B900BF704700BF72B60D4831
:1033C0000268B2FA82F30B2B10DC4FF00041D940B7
:1033D00022EA0102026062B6074803EBC303DB0086
:1033E000C2180021C15010465160704762B60020DB
:1033F000704700BF5C410020D03D00200D4B0E4ABD
:10340000C31AA2FB03231B090B2B0CD80B4A1278FF
:1034100052B972B60A484FF00041026821FA03F32C
:103420001A43026062B67047064A1278002AF0D04A
:10343000FFF720B9D03D0020398EE33845E9002060
:103440005C41002050E9002038B50F4D286878B164
:1034500043880288C118013393420C7A02D2438018
:10346000204638BDFFF7CAFF002320462B6038BD39
:10347000064B1B782BB10320FFF7C8F82860002803
:10348000E6D14FF0FF3038BD64E9002050E900205C
:1034900010B5094C206818B143881844007A10BD53
:1034A000064B1B782BB10320FFF7B0F820600028F3
:1034B000F2D14FF0FF3010BD64E9002050E9002048
:1034C000044B054A1B6890881BB11A885B88D31A85
:1034D0001844704764E90020C0EC00200B4B1B78B7
:1034E0009BB110B50A4C206848B1FFF787FF002355
:1034F00003202360FFF78AF830B1FFF77FFF032036
:10350000FFF784F80028F8D110BD704750E900207B
:1035100064E900202DE9F04FDFF8F89083B0012234
:1035200089F80020019169B3DFF8EC80354F019EE6
:103530008346D8F80000B0B3334D4488C4F140014D
:10354000B14228BF314604EB010E00221FFA8EFE65
:103550002A70761AA0F802E000F1080251B1013C8D
:10356000224459441BF8014B02F8014F8B45F9D115
:10357000B0F802E0BEF13F0F0BD8244A05211170CC
:10358000002ED6D10198002389F8003003B0BDE8A1
:10359000F08F4022028001460420FFF7CFF800227E
:1035A000C8F80020E9E73A7822B3194C164D4FF0DD
:1035B000010A07E0013C16D02A78A2B900F0AEF863
:1035C0003A78BAB10420FFF73FF80728F2D889F813
:1035D00000A0FFF7F3FEC8F800000028ADD10D4BA6
:1035E000013C1870E8D101234FF0FF302B7003B07D
:1035F000BDE8F08F00234FF0FF3089F8003003B0B2
:10360000BDE8F08F50E9002060E9002058E9002073
:103610002148010059E900205CE9002000B583B091
:1036200002AB012103F8010D1846FFF773FF03B049
:103630005DF804FB38B50E4D0E4C2868012323704D
:1036400028B1408800232370C0F1400038BD0A4BE8
:103650001B7813B90020207038BD0420FEF7F4FF5A
:103660000728F7D8FFF7AAFE28600028E9D1F1E77C
:103670005CE9002059E9002050E90020F8B5114B21
:103680001B788BB1104E114D346801272F7064B137
:103690000F4A638800271770214623800420FFF714
:1036A0004DF8376000232B70F8BDFFF787FE084BFD
:1036B00028B1014604201C70FFF740F8F2E71F70A4
:1036C000F0E700BF50E900205CE9002059E9002044
:1036D00058E9002038B50E4B1B7873B90D4C2168A2
:1036E00061B103F0FF054B880B800420FFF726F83B
:1036F000256038BD084B01221A7038BDFFF75EFE09
:103700000028F7D00146BDE838400420FFF716B87E
:1037100059E900205CE9002058E9002038B52C4C1C
:10372000237803B138BD01232370FFF7C9FE0028B9
:1037300042D100F007FA00283BD100F099FA0028A6
:1037400034D100F02BFB70BB00F0A4FB40BB00F0B9
:103750001DFC10BB00F096FCE0B900232370EFF3D2
:103760000583002BDED1EFF3108172B6194B186878
:1037700028B3194C227812BB45691D6001232370C0
:103780000DB3AA6101B962B60025457783689847F1
:103790002570C7E700F028F9DFE700F023F9D9E743
:1037A00000F01EF9D3E700F019F9CDE700F014F9A5
:1037B000C7E700F00FF9C0E7FFF7FEFDB9E7002902
:1037C000B0D162B638BD054B1D600029DCD1DAE707
:1037D00069E900207CE9002080E9002078E90020E8
:1037E00010B4EFF3108272B6437F33B9017F012921
:1037F00008D0032910D00123437702B962B65DF8DF
:10380000044B7047114C2168A1B1114943610B6809
:10381000836108605861EEE70E4C216881B10E4962
:1038200043610B688361086058610C4B4FF0805115
:103830001960E0E7064B4161816120601860DAE7BA
:10384000054B4161816120601860EEE77CE9002052
:1038500078E900206CE9002070E9002004ED00E028
:1038600010B4047F4160022CC26003D05DF8044BA9
:10387000FFF7B6BF83685DF8044B184770B5EFF3E8
:10388000108272B60C4C206880B10C4E0025436942
:10389000236073B19D6102B962B64577836898472A
:1038A000EFF3108272B620680028F0D102B962B638
:1038B00070BD3360EFE700BF6CE9002070E90020C5
:1038C000FFF7DCBF184A30B41468002C27D0036817
:1038D00021688B420ED2CB1A00218460C160236024
:1038E000E06010600223037530BC704711688B42A2
:1038F000144608D3A2685B1A0360002AF6D18260DE
:10390000C460A060EEE7D268C2608460E060C56811
:10391000CB1A0222A8602360027530BC7047846015
:10392000C4601060DEE700BF74E90020F8B5224EE5
:1039300034682CB32368002B3AD1204F1D4604E095
:103940003468ECB12368002B32D1A36803B1DD6089
:1039500020693360036825751B68BB4221D1037F52
:103960004560022BC46020D0FFF73AFF6368002B4C
:10397000E6D023602046FFF7A5FF3468002CE1D194
:10398000EFF3108372B60E4A00211068116003B97C
:1039900062B628B18468FFF795FF20460028F9D168
:1039A000F8BD224600219847E0E783689847DDE7A5
:1039B000013B2360E4E700BF74E9002061380000A8
:1039C00084E90020024A136801331360FFF7AEBF99
:1039D0006CE80020704700BF704700BF704700BF11
:1039E000704700BF704700BF704700BF30B4294820
:1039F000294A2A4B2A4D6024E121047011701B785A
:103A0000284C082B30D00A2B2748284937D00C2BBC
:103A10000CBF35225D2212232A60236002600B60F6
:103A2000234B24491B78244ABBB101230B6013604C
:103A3000224B23491B78234A012B26D9042B0FD96B
:103A4000082B1ED9102B94BF862387230B6013608D
:103A50001D4B01221A7030BC70470B601360E7E702
:103A600084230B601360F3E700F58E200F490830C4
:103A7000212213232A60236002600B60D0E73922E1
:103A8000F7E785230B601360E2E780230B60136088
:103A9000DEE700BF004007400140074060410020D2
:103AA00008B003400CB0034008B00B400CB00B4012
:103AB00089E9002020B0034020B00B406141002084
:103AC00024B0034024B00B4088E900200A4A0B4987
:103AD000136843F4805313600B7843B9084BC0223A
:103AE0001A70084B80F30C0000B218807047044B2A
:103AF00080221A70F5E700BF2C80044089E900207D
:103B000021C00C4000C00C400A4A0B49136843F422
:103B1000005313600B7843B9084BC0221A70084B4E
:103B200080F30C0000B218807047044B80221A709A
:103B3000F5E700BF2C80044089E9002021D00C402B
:103B400000D00C40054A064B10781B78C0B2DBB29F
:103B5000984238BF4030C01A704700BF90E900203B
:103B600091E90020F0B4384B1A7912F0300F2CD0C4
:103B700072B6997D01F0FF0200293DD062B6334F45
:103B8000334938780D78334E1C46C0B2EDB2431C31
:103B9000402BE17928BF0023AB4202F1FF32C9B2CA
:103BA0001CBFF154184612F0FF02F0D12A4B1B68DB
:103BB000C2B23A704BB1A84236BFC5F14005401BB6
:103BC00040192728C4BF01221A701F49CA78D2B2EF
:103BD000150616D452060DD51B4B1B795B0609D56D
:103BE0001E4B1F491B6800220A7003B11A70164B46
:103BF0003C22DA70F0BC70474022D9795A7462B620
:103C0000E3E70B791C06E5D5164B174E1C78337885
:103C1000E4B2DBB29C420ED0144D01E0A3420AD0C4
:103C20000133402B28BF00230879E85CC0B2C8717B
:103C3000087D0728F2D9DBB2034933700B791806E7
:103C400044BF7C23CB70C5E700A0064090E900206C
:103C500091E90020D4E900208CE9002018EA002036
:103C600014EA00201CEA002015EA002094E9002054
:103C7000054A064B10781B78C0B2DBB2984238BFB9
:103C80004030C01A704700BF90EA002025EA0020AB
:103C9000F0B4384B1A7912F0300F2CD072B6997DEF
:103CA00001F0FF0200293DD062B6334F3349387826
:103CB0000D78334E1C46C0B2EDB2431C402BE17967
:103CC00028BF0023AB4202F1FF32C9B21CBFF1543E
:103CD000184612F0FF02F0D12A4B1B68C2B23A70AC
:103CE0004BB1A84236BFC5F14005401B40192728FB
:103CF000C4BF01221A701F49CA78D2B2150616D461
:103D000052060DD51B4B1B795B0609D51E4B1F496F
:103D10001B6800220A7003B11A70164B3C22DA703D
:103D2000F0BC70474022D9795A7462B6E3E70B7948
:103D30001C06E5D5164B174E1C783378E4B2DBB27F
:103D40009C420ED0144D01E0A3420AD00133282B2F
:103D500028BF00230879E85CC0B2C871087D072835
:103D6000F2D9DBB2034933700B79180644BF7C23C8
:103D7000CB70C5E700B0064090EA002025EA00209D
:103D800050EA002020EA002094EA002024EA0020E3
:103D900098EA002091EA002028EA0020054A064B14
:103DA00010781B78C0B2DBB2984238BF4030C01ADE
:103DB000704700BFA0EA0020A1EA002030B42B4BDE
:103DC0001A7994061FD52A48DA79037829490133EC
:103DD0003F2B0978C8BF00238B42D2B203D0264CB8
:103DE000D9B2E2540170254A116861B1244A1278AF
:103DF000D2B2934236BFC2F140029B1A9B18272BC6
:103E0000C4BF01230B70194AD378DBB2180611D452
:103E10005A060DD5154B1B795B0609D5194B1A4966
:103E20001B6800220A7003B11A70104B2C22DA7042
:103E300030BC704711790906EAD5144910480C784E
:103E40000178C9B28C420DD04A1C272A84BF0021B8
:103E50000A460F4D054C98BFD1B2AA5CD2B2E271AE
:103E60000170D5E76C21D170D2E700BF00C00640D9
:103E7000A0EA0020A1EA0020CCEA00209CEA002071
:103E80000DEB002010EB00200CEB002014EB0020C9
:103E9000A4EA0020054A064B10781B78C0B2DBB2BA
:103EA000984238BF4030C01A704700BF1CEB00205A
:103EB0001DEB002030B42B4B1A7994061FD52A48ED
:103EC000DA790378294901333F2B0978C8BF0023E9
:103ED0008B42D2B203D0264CD9B2E2540170254AAB
:103EE000116861B1244A1278D2B2934236BFC2F14E
:103EF00040029B1A9B18272BC4BF01230B70194A41
:103F0000D378DBB2180611D45A060DD5154B1B79A0
:103F10005B0609D5194B1A491B6800220A7003B1C8
:103F20001A70104B2C22DA7030BC704711790906D8
:103F3000EAD5144910480C780178C9B28C420DD0EA
:103F40004A1C272A84BF00210A460F4D054C98BF02
:103F5000D1B2AA5CD2B2E2710170D5E76C21D17006
:103F6000D2E700BF00D006401CEB00201DEB002074
:103F700048EB002018EB002089EB00208CEB0020A0
:103F800088EB002090EB002020EB0020054A064B38
:103F900010781B78C0B2DBB2984238BF4030C01AEC
:103FA000704700BF98EB002099EB002030B42B4BFA
:103FB0001A7994061FD52A48DA79037829490133FA
:103FC0003F2B0978C8BF00238B42D2B203D0264CC6
:103FD000D9B2E2540170254A116861B1244A1278BD
:103FE000D2B2934236BFC2F140029B1A9B18272BD4
:103FF000C4BF01230B70194AD378DBB2180611D461
:104000005A060DD5154B1B795B0609D5194B1A4974
:104010001B6800220A7003B11A70104B2C22DA7050
:1040200030BC704711790906EAD5144910480C785C
:104030000178C9B28C420DD04A1C272A84BF0021C6
:104040000A460F4D054C98BFD1B2AA5CD2B2E271BC
:104050000170D5E76C21D170D2E700BF00A00E40FF
:1040600098EB002099EB0020C4EB002094EB00209B
:1040700005EC002008EC002004EC00200CEC0020F3
:104080009CEB0020054A064B10781B78C0B2DBB2CF
:10409000984238BF4030C01A704700BF14EC00206F
:1040A00015EC002030B42C4B5A6894021FD52B48D5
:1040B000DA6803782A4901333F2B0978C8BF002307
:1040C0008B4204D0274CD2B2D9B2E2540170264AB6
:1040D000116861B1254A1278D2B2934236BFC2F15B
:1040E00040029B1A9B18272BC4BF01230B701A4A4E
:1040F0009368180202D55268110211D45A020DD5E4
:10410000154B5B685B0209D5194B1A491B680022E5
:104110000A7003B11A70184B00221A6030BC704745
:10412000164A124910780A78D2B290420DD0013264
:10413000272A84BF00200246114D074C98BFD0B2F9
:10414000AA5CD2B2E2600870D8E70E480A4A00249E
:10415000012104601160D1E700400C4014EC002004
:1041600015EC002040EC002010EC002081EC002039
:1041700084EC002080EC00205801884388EC00206B
:1041800018EC00205C01884310B584B072B6FDF7CE
:104190008BFE184A184B19491160702280211A7041
:1041A0001A46197013781B06FCD5154B1C68FDF7D1
:1041B00095FE62B6134B9C429CBF04EB84046400E2
:1041C0002046114C01A90A22FDF7A4FE01A92046B0
:1041D000002311F8012B01333AB10A2B20F8022FEA
:1041E000F7D11623237004B010BD5B00DBB223703F
:1041F00004B010BD0400024000000240000007416E
:104200000C0002407F969800F041002081F00041B0
:1042100002E000BF83F0004330B54FEA41044FEAAB
:10422000430594EA050F08BF90EA020F1FBF54EA46
:10423000000C55EA020C7FEA645C7FEA655C00F0E2
:10424000E2804FEA5454D4EB5555B8BF6D420CDDB3
:104250002C4480EA020281EA030382EA000083EA36
:10426000010180EA020281EA0303362D88BF30BDD6
:1042700011F0004F4FEA01314FF4801C4CEA11312C
:1042800002D0404261EB410113F0004F4FEA03338B
:104290004CEA133302D0524263EB430394EA050F16
:1042A00000F0A780A4F10104D5F1200E0DDB02FA85
:1042B0000EFC22FA05F2801841F1000103FA0EF219
:1042C000801843FA05F359410EE0A5F120050EF1DF
:1042D000200E012A03FA0EFC28BF4CF0020C43FA10
:1042E00005F3C01851EBE37101F0004507D54FF01D
:1042F000000EDCF1000C7EEB00006EEB0101B1F56D
:10430000801F1BD3B1F5001F0CD349085FEA3000B2
:104310004FEA3C0C04F101044FEA445212F5800FBD
:1043200080F09A80BCF1004F08BF5FEA500C50F15A
:10433000000041EB045141EA050130BD5FEA4C0C3D
:10434000404141EB010111F4801FA4F10104E9D1C6
:1043500091F0000F04BF01460020B1FA81F308BFBD
:104360002033A3F10B03B3F120020CDA0C3208DD89
:1043700002F1140CC2F10C0201FA0CF021FA02F164
:104380000CE002F11402D8BFC2F1200C01FA02F1D4
:1043900020FA0CFCDCBF41EA0C019040E41AA2BFF9
:1043A00001EB0451294330BD6FEA04041F3C1CDAC1
:1043B0000C340EDC04F11404C4F1200220FA04F0E1
:1043C00001FA02F340EA030021FA04F345EA03018B
:1043D00030BDC4F10C04C4F1200220FA02F001FA4D
:1043E00004F340EA0300294630BD21FA04F02946CF
:1043F00030BD94F0000F83F4801306BF81F4801168
:104400000134013D4EE77FEA645C18BF7FEA655CDA
:1044100029D094EA050F08BF90EA020F05D054EAAC
:10442000000C04BF1946104630BD91EA030F1EBFB1
:104430000021002030BD5FEA545C05D140004941B5
:1044400028BF41F0004130BD14F580043CBF01F5A8
:10445000801130BD01F0004545F0FE4141F470018E
:104460004FF0000030BD7FEA645C1ABF1946104669
:104470007FEA655C1CBF0B46024650EA013406BF6A
:1044800052EA033591EA030F41F4002130BD00BF29
:1044900090F0000F04BF0021704730B54FF48064E6
:1044A00004F132044FF000054FF0000150E700BF67
:1044B00090F0000F04BF0021704730B54FF48064C6
:1044C00004F1320410F0004548BF40424FF00001B3
:1044D0003EE700BF42004FEAE2014FEA31014FEAF6
:1044E00002701FBF12F07F4393F07F4F81F0605145
:1044F000704792F0000F14BF93F07F4F704730B5B4
:104500004FF4607401F0004521F0004120E700BF46
:1045100050EA010208BF704730B54FF000050AE0CD
:1045200050EA010208BF704730B511F0004502D5CE
:10453000404261EB41014FF4806404F132045FEAD0
:10454000915C3FF4DCAE4FF003025FEADC0C18BF75
:1045500003325FEADC0C18BF033202EBDC02C2F16B
:10456000200300FA03FC20FA02F001FA03FE40EAFD
:104570000E0021FA02F11444C1E600BF70B54FF0FD
:10458000FF0C4CF4E06C1CEA11541DBF1CEA1355DF
:1045900094EA0C0F95EA0C0F00F0DEF82C4481EA47
:1045A000030621EA4C5123EA4C5350EA013518BF67
:1045B00052EA033541F4801143F4801338D0A0FB54
:1045C00002CE4FF00005E1FB02E506F00042E0FB01
:1045D00003E54FF00006E1FB03569CF0000F18BF07
:1045E0004EF0010EA4F1FF04B6F5007F64F54074AF
:1045F00004D25FEA4E0E6D4146EB060642EAC62142
:1046000041EA55514FEAC52040EA5E504FEACE2EAE
:10461000B4F1FD0C88BFBCF5E06F1ED8BEF1004FB1
:1046200008BF5FEA500E50F1000041EB045170BD2D
:1046300006F0004646EA010140EA020081EA030171
:10464000B4EB5C04C2BFD4EB0C0541EA045170BD6D
:1046500041F480114FF0000E013C00F3AB8014F1E7
:10466000360FDEBF002001F0004170BDC4F1000430
:10467000203C35DA0C341BDC04F11404C4F12005B1
:1046800000FA05F320FA04F001FA05F240EA02000C
:1046900001F0004221F0004110EBD37021FA04F642
:1046A00042EB06015EEA430E08BF20EAD37070BDFC
:1046B000C4F10C04C4F1200500FA04F320FA05F05B
:1046C00001FA04F240EA020001F0004110EBD3705D
:1046D00041F100015EEA430E08BF20EAD37070BDCD
:1046E000C4F1200500FA05F24EEA020E20FA04F3A6
:1046F00001FA05F243EA020321FA04F001F0004155
:1047000021FA04F220EA020000EBD3705EEA430EC5
:1047100008BF20EAD37070BD94F0000F0FD101F0F4
:104720000046400041EB010111F4801F08BF013C2D
:10473000F7D041EA060195F0000F18BF704703F06B
:104740000046520043EB030313F4801F08BF013DF2
:10475000F7D043EA0603704794EA0C0F0CEA1355AE
:1047600018BF95EA0C0F0CD050EA410618BF52EA68
:104770004306D1D181EA030101F000414FF000006E
:1047800070BD50EA410606BF1046194652EA43067C
:1047900019D094EA0C0F02D150EA013613D195EAF0
:1047A0000C0F05D152EA03361CBF104619460AD138
:1047B00081EA030101F0004141F0FE4141F4700142
:1047C0004FF0000070BD41F0FE4141F4780170BD32
:1047D00070B54FF0FF0C4CF4E06C1CEA11541DBF97
:1047E0001CEA135594EA0C0F95EA0C0F00F0A7F899
:1047F000A4EB050481EA030E52EA03354FEA0131C6
:1048000000F088804FEA03334FF0805545EA1313D8
:1048100043EA12634FEA022245EA111545EA1065A0
:104820004FEA00260EF000419D4208BF964244F137
:10483000FD0404F5407402D25B084FEA3202B61A56
:1048400065EB03055B084FEA32024FF480104FF42A
:10485000002CB6EB020E75EB030E22BFB61A75469E
:1048600040EA0C005B084FEA3202B6EB020E75EB31
:10487000030E22BFB61A754640EA5C005B084FEA99
:104880003202B6EB020E75EB030E22BFB61A754666
:1048900040EA9C005B084FEA3202B6EB020E75EB71
:1048A000030E22BFB61A754640EADC0055EA060E32
:1048B00018D04FEA051545EA16754FEA06164FEA75
:1048C000C30343EA52734FEAC2025FEA1C1CC0D121
:1048D00011F4801F0BD141EA00014FF000004FF0AE
:1048E000004CB6E711F4801F04BF01430020B4F16F
:1048F000FD0C88BFBCF5E06F3FF6AFAEB5EB030C27
:1049000004BFB6EB020C5FEA500C50F1000041EB23
:10491000045170BD0EF0004E4EEA113114EB5C04F0
:10492000C2BFD4EB0C0541EA045170BD41F48011C3
:104930004FF0000E013C90E645EA060E8DE60CEACB
:10494000135594EA0C0F08BF95EA0C0F3FF43BAFE8
:1049500094EA0C0F0AD150EA01347FF434AF95EA9F
:104960000C0F7FF425AF104619462CE795EA0C0F83
:1049700006D152EA03353FF4FDAE1046194622E750
:1049800050EA410618BF52EA43067FF4C5AE50EA2A
:1049900041047FF40DAF52EA43057FF4EBAE12E71A
:1049A0004FF0FF3C06E000BF4FF0010C02E000BFFB
:1049B0004FF0010C4DF804CD4FEA410C7FEA6C5CDE
:1049C0004FEA430C18BF7FEA6C5C1BD001B050EA81
:1049D000410C0CBF52EA430C91EA030F02BF90EA6C
:1049E000020F0020704710F1000F91EA030F58BF2B
:1049F000994208BF90422CBFD8176FEAE37040F08D
:104A0000010070474FEA410C7FEA6C5C02D150EA2A
:104A1000013C07D14FEA430C7FEA6C5CD6D152EAE5
:104A2000033CD3D05DF8040B704700BF84461046AA
:104A300062468C461946634600E000BF01B5FFF7A9
:104A4000B7FF002848BF10F1000F01BD4DF808ED79
:104A5000FFF7F4FF0CBF012000205DF808FB00BF4A
:104A60004DF808EDFFF7EAFF34BF012000205DF8A4
:104A700008FB00BF4DF808EDFFF7E0FF94BF0120F1
:104A800000205DF808FB00BF4DF808EDFFF7CEFFF2
:104A900094BF012000205DF808FB00BF4DF808ED31
:104AA000FFF7C4FF34BF012000205DF808FB00BF02
:104AB0004FEA410C7FEA6C5C02D150EA013C0AD11A
:104AC0004FEA430C7FEA6C5C02D152EA033C02D10C
:104AD0004FF0000070474FF0010070470B46014651
:104AE000184600F001B800BF13460A4601460220EE
:104AF00000F00ABF014B1868704700BF3046002025
:104B000070B50F4E0F4D761BB61018BF002405D0A0
:104B1000013455F8043B9847A642F9D10A4E0B4D93
:104B2000761B0AF0D5FEB61018BF002406D001345B
:104B300055F8043B9847A642F9D170BD70BD00BF3F
:104B4000DCF80000DCF80000E8F80000DCF8000009
:104B5000024B0146186800F00BB800BF3046002039
:104B6000024B0146186800F093BF00BF304600209A
:104B70002DE9F04F01F10B05162D83B0064640F2EA
:104B80009F8035F0070500F1BF80A94200F2BC808C
:104B900000F06EFBB5F5FC7FC0F09C826B0A00F064
:104BA000BA80042B00F28381A80900F1390E4FEA84
:104BB0004E033830C44F07EB8303A3F108015C6850
:104BC000A14207D1ACE0002A80F2AC80E468A142A7
:104BD00000F0A680636823F003035A1B0F2AF2DD5E
:104BE000B9493C6901F1080E744500F0B38163686E
:104BF00023F003035A1B0F2A00F39981002AC1F8FE
:104C000014E0C1F810E080F29E80B3F5007F80F0E0
:104C10006781DB0803F1010C01229B1002FA03F308
:104C20004A6851F83C80C4F8088001EBCC091A436B
:104C3000A9F10803E3604A6041F83C40C8F80C4021
:104C4000831001249C40944200F28A80144206D1D1
:104C500020F003006400144200F10400FAD007EBD6
:104C6000C009CC468046DCF80C108C4507D173E1B6
:104C7000002A80F28181C9688C4500F06D814B6803
:104C800023F003035A1B0F2AF2DD0C46D1F80CC0A7
:104C900054F8088F4B1945F001054D6042F00101B1
:104CA000C8F80CC03046CCF808807B613B61C3F883
:104CB0000CE0C3F808E059609A5000F0DBFA1FE0FE
:104CC000102921D800F0D4FA1025062302207E4FA7
:104CD00007EB8303A3F108025C68944200F045816E
:104CE0006368E168A56823F00303234430465A68EB
:104CF000E96042F001028D605A6000F0BBFA0834AE
:104D0000204603B0BDE8F08F00240C23204633601A
:104D100003B0BDE8F08F80234FF0400E3F2049E7FD
:104D200070465DE72344E1685A68A56842F00102D5
:104D3000E96030468D605A6000F09CFA08342046E5
:104D400003B0BDE8F08F234430465A6842F00102B8
:104D50005A6000F08FFA0834204603B0BDE8F08FA7
:104D6000BC68636823F00308A84504D3C5EB0803B7
:104D70000F2B00F38C80554BDFF860911A68D9F83F
:104D8000003001332A4404EB080A00F0608102F588
:104D900080520F3222F47F6222F00F021146304619
:104DA000019200F061FCB0F1FF3F8346019A00F0F0
:104DB0005881824500F2FC80454B1968DA45114460
:104DC000196000F05381D9F80000DFF810E10130DC
:104DD0001BBFCAEB0B0A5144CEF800B019601BF0A0
:104DE000070100F01781C1F10800C1F5805183442B
:104DF00008315A44C2F30B02C2EB0109494630465E
:104E0000019300F031FC431C019B00F03F81CBEB90
:104E100000024A4442F001021968C7F808B0494448
:104E2000BC42CBF804201960DFF8A49016D0B8F18A
:104E30000F0F40F2FD806268A8F10C0323F0070316
:104E4000E01802F001024FF0050E1A430F2B6260CA
:104E5000C0F804E0C0F808E000F21C811D4BBC68FB
:104E60001A68914288BF19601B4B1A6891426268A8
:104E700088BF196022F003029542A2EB050301D816
:104E80000F2B04DC304600F0F5F9002438E76219F6
:104E900043F0010345F0010565603046BA60536098
:104EA00000F0E8F90834204603B0BDE8F08F142B79
:104EB00071D9542B00F2A480280B00F16F0E4FEA39
:104EC0004E036E3076E600BFA047002094EC002031
:104ED00098EC002090EC00208CEC0020AC4B0020E3
:104EE0005A0A042A5ED9142A00F2B38002F15C0146
:104EF00049005B3207EB810C57F82110DFF8DC81A9
:104F0000ACF1080C8C4500F088804A6822F003025E
:104F1000934202D289688C45F7D1D1F80CC07A68E7
:104F2000C4F80CC0A160CCF80840CC6088E66319D6
:104F300042F0010745F00105656030464B610B61A9
:104F4000C3F80CE0C3F808E05F609A50083400F042
:104F500091F9D5E64A6873E608F1010818F0030FE5
:104F60000CF1080C7FF47FAE30E0DC68A34208BF90
:104F700002303FF435AEB3E60B440C465A68C968BC
:104F800054F8085F42F001025A603046E9608D60D3
:104F900000F070F9B4E603F15C0E03F15B004FEA38
:104FA0004E0307E69A0902F1390149003832A1E7B8
:104FB000BC424A4B3FF400AF9C68626822F0030297
:104FC0005AE759F80839994540F0828010F0030FEC
:104FD00000F1FF30F5D17B6823EA04037B606400B5
:104FE0009C423FF6BDAE002C3FF4BAAE1C42404698
:104FF0007FF435AE64001C4200F10400FAD02EE6C6
:10500000B3F5AA7F18D8E80B00F1780E4FEA4E03EB
:105010007730CFE54FF48051EBE60121D8F804302A
:10502000921001FA02F21A43C8F80420614677E7A9
:105030000123CBF8043025E740F25452934220D8A4
:10504000A80C00F17D0E4FEA4E037C30B2E5103221
:10505000A4E6542A26D81A0B02F16F0149006E32D9
:1050600048E7BC68626822F0030205E7CAF30B0058
:1050700000287FF4A8AE4244BB6842F001025A60A7
:10508000ECE6FE234FF07F0E7E2093E501224FF0E9
:105090000009C1E604F10801304600F0F9FCD9F836
:1050A0000010DBE6B2F5AA7F05D8DA0B02F1780131
:1050B000490077321EE740F254518A4205D89A0CD3
:1050C00002F17D0149007C3214E7FE217E2211E7C6
:1050D0007B6884E7E808431C5B00F8E5A0470020F4
:1050E00082B049B15AB16BB113780B601278101CC1
:1050F00018BF012002B0704701A9002AF3D1104661
:1051000002B070476FF00100F4E700BF8842F0B5CD
:105110000DD98B1898420AD28118002A51D09A1AB8
:1051200013F8014D01F8014D9342F9D1F0BD0F2A5A
:1051300048D941EA00039B0746D100F1100401F170
:105140001003154653F8106C44F8106C53F80C6CAF
:1051500044F80C6C53F8086C44F8086C103D53F894
:10516000046C44F8046C0F2D03F1100304F11004D7
:10517000E8D8A2F1100323F00F0302F00F0E103352
:10518000BEF1030F1944034421D91E1F0D46744676
:10519000043C55F8047B46F8047F032CF8D8AEF1A4
:1051A000040424F0030404342344214402F00302E1
:1051B00062B1013B0A4411F8014B03F8014F8A42E6
:1051C000F9D1F0BD0346F3E70346F2E7F0BD7246BE
:1051D000EEE700BF70B4840746D0541E002A41D0C9
:1051E000CDB2034602E0621EE4B3144603F8015B4D
:1051F0009A07F8D1032C2ED9CDB245EA05250F2CFC
:1052000045EA054519D903F110022646103E0F2E36
:1052100042F8105C42F80C5C42F8085C42F8045C0E
:1052200002F11002F2D8A4F1100222F00F0204F0F1
:105230000F041032032C13440DD91E462246043AA3
:10524000032A46F8045BFAD8221F22F00302043234
:10525000134404F003042CB1C9B21C4403F8011B2D
:10526000A342FBD170BC704714460346C2E700BF9F
:10527000704700BF704700BF024B0A4601461868DE
:1052800000F002B8304600202DE9F04F174683B0F9
:10529000002900F0C1800E46814607F10B05FFF79B
:1052A000E7FF56F804EC162D2EF00304A6F10808CB
:1052B00040D810221546AF4241D8944275DAC94B06
:1052C000996808EB04008842416800F0D98021F019
:1052D000010303445B68DB077DD51EF0010F35D069
:1052E00039464846FFF744FC0746E0B156F8043C0F
:1052F00023F001034344A0F108029A4200F04481E4
:10530000221F242A00F23181132A00F2048103466D
:105310003246116819605168596092689A60314646
:10532000484600F0B5FB4846FFF7A4FF384603B0F7
:10533000BDE8F08F25F00705002D2A46BBDA0C23C7
:105340000020C9F8003003B0BDE8F08F56F8083CE3
:10535000C3EB080ADAF8043023F0030C04EB0C0367
:105360009342BDDB5746DAF80C1057F8080F221F9E
:10537000242AC160886000F21781132A40F212814A
:105380003168CAF808107168CAF80C101B2A00F2BC
:105390002B8108360AF11002316811607168516082
:1053A000B16891603E461C46D046631B0F2B1DD84A
:1053B000D8F8043003F0010323434444C8F8043010
:1053C000636843F0010363604846FFF753FF3046CC
:1053D00003B0BDE8F08F21F003012144914221DBAD
:1053E000C36882680C46D3609A60DEE7D8F8042070
:1053F00008EB050102F00102154343F001020B44E2
:10540000C8F804504A605A6842F0010208315A60F4
:10541000484600F03DFBD7E7114603B0BDE8F04F2A
:10542000FFF7A6BB1EF0010F7FF45AAF56F8083CF9
:10543000C3EB080ADAF8043023F0030C01EB0C0E7E
:1054400096458BDBC36882685746D3609A6057F8ED
:10545000081FDAF80C30CB60221F242A996000F272
:105460009980132A62D93368CAF808307368CAF879
:105470000C301B2A00F2A08008360AF1100356E017
:1054800021F0030BA34405F11000834559DA1EF007
:10549000010F7FF425AF56F8081CC1EB080ADAF8B3
:1054A000041021F0030CE34458453FF757AF57462B
:1054B000DAF80C1057F8080F221F242AC160886000
:1054C00000F2B480132A40F2A5803168CAF80810AF
:1054D0007168CAF80C101B2A00F2AF8008360AF176
:1054E00010023168116071685160B16891600AEB17
:1054F0000501C5EB0B0242F0010299604A60DAF83F
:10550000043003F001031D434846CAF80450FFF776
:10551000B1FE38465CE733680360736843601B2A5A
:1055200027D800F1080306F10802F2E63B4632688C
:105530001A6072685A60B2689A603E467446D046F5
:1055400033E708EB0501C5EB0B0B4BF0010299604B
:105550004A6056F8043C03F001031D43484646F8F0
:10556000045CFFF787FE304632E73146FFF7CEFD99
:10557000D5E6B3688360F368C360242A28D000F1BD
:10558000100306F11002C4E650F8043C23F00303B4
:105590001C440AE7314638467446D046FFF7B6FD4C
:1055A0003E4602E73A46F7E6314638461C46D046C4
:1055B000FFF7ACFD3E46F8E6B368CAF81030F36872
:1055C000CAF81430242A1BD010360AF11803AEE7AB
:1055D000336903617369436106F1180200F118032E
:1055E00097E600BFA0470020B168CAF81010F16824
:1055F000CAF81410242A0FD010360AF11802CBE68C
:105600003369CAF818307369CAF81C3018360AF1C1
:1056100020038CE73A4664E73269CAF818207269B9
:10562000CAF81C2018360AF12002B5E63146384681
:105630000193FFF76BFD019B59E7B168CAF81010A1
:10564000F168CAF81410242A03D010360AF118029F
:1056500047E73269CAF818207269CAF81C20183660
:105660000AF120023DE700BF38B5074C002305468C
:1056700008462360FCF702FC431C00D038BD2368B9
:10568000002BFBD02B6038BDD4EC002080EA010257
:10569000844612F0030F4FD111F0030F32D14DF8B1
:1056A000044D11F0040F51F8043B0BD0A3F101326B
:1056B0009A4312F0803F04BF4CF8043B51F8043B7E
:1056C00016D100BF51F8044BA3F101329A4312F0F6
:1056D000803FA4F101320BD14CF8043BA24312F0FD
:1056E000803F04BF51F8043B4CF8044BEAD02346FA
:1056F0000CF8013B13F0FF0F4FEA3323F8D15DF8AC
:10570000044B704711F0010F06D011F8012B0CF873
:10571000012B002A08BF704711F0020FBFD031F8EB
:10572000022B12F0FF0F16BF2CF8022B8CF8002072
:1057300012F47F4FB3D1704711F8012B0CF8012BF5
:10574000002AF9D1704700BFFFFFFFFFFFFFFFFFF7
:10575000FFFFFFFFFFFFFFFFFFFFFFFFFFFFFFFF59
:10576000FFFFFFFFFFFFFFFFFFFFFFFFFFFFFFFF49
:10577000FFFFFFFFFFFFFFFFFFFFFFFFFFFFFFFF39
:1057800090F800F06DE9024520F007016FF0000C81
:1057900010F0070491F820F040F049804FF0000429
:1057A0006FF00700D1E9002391F840F000F1080004
:1057B00082FA4CF2A4FA8CF283FA4CF3A2FA8CF33C
:1057C0004BBBD1E9022382FA4CF200F10800A4FAA3
:1057D0008CF283FA4CF3A2FA8CF3E3B9D1E90423F7
:1057E00082FA4CF200F10800A4FA8CF283FA4CF32E
:1057F000A2FA8CF37BB9D1E9062301F1200182FAE8
:105800004CF200F10800A4FA8CF283FA4CF3A2FAED
:105810008CF3002BC6D0002A04BF04301A4612BAFB
:10582000B2FA82F2FDE8024500EBD2007047D1E9FE
:10583000002304F00305C4F100004FEAC50514F08D
:10584000040F91F840F00CFA05F562EA05021CBF5E
:1058500063EA050362464FF00004A9E7F0B5ADF531
:10586000057D04AD00930F4613464FF4007403AA60
:1058700029460394064600F065FD88B104460246B9
:105880003946039B304600F029F8AC42039004D01F
:105890003046214600F0FCF803980DF5057DF0BD7B
:1058A0004FF0FF30F9E700BF10B4044C13460A462E
:1058B000014620685DF8044BFFF7D0BF304600205A
:1058C00021B1FF2A04D80A700120704708467047AA
:1058D0008A2303604FF0FF30704700BF70B50D465C
:1058E000084C114606461A46284600232360FCF75A
:1058F00041F9431C00D070BD2368002BFBD03360FE
:1059000070BD00BFD4EC00202DE9F047254C256880
:10591000D5F848410646884692469946C4B3606821
:105920001F2817DC431C76B104EB80050122C5F863
:1059300088A0D4F8881182401143022EC4F888113F
:10594000C5F808911ED00230636044F82080002022
:10595000BDE8F087144B03B34FF4C870FFF7F8F8B5
:105960000446D0B1D5F84831002780E88800C5F852
:10597000484138460123C4F88871C4F88C71002E60
:10598000E1D0D1E7D4F88C110A43C4F88C21DAE7CE
:1059900005F5A674C5F84841C1E74FF0FF30BDE8F2
:1059A000F08700BF4CF60000514B0000024B13B1D2
:1059B000024800F005B8704700000000CD59000013
:1059C000002301461A461846FFF79EBF38B5074D1B
:1059D000074C2C1BA41005D0013C55F8043D9847FA
:1059E000002CF9D1BDE8384009F07EBF000000006E
:1059F00000000000F8B5234F0C460646FFF738FCC0
:105A0000BB685D6825F00305291B01F6EF7121F4E1
:105A10007F6121F00F01A1F58054B4F5805F07DBB1
:105A200000213046FFF720FEBB682B44984204D08B
:105A30003046FFF71FFC0020F8BD61423046FFF7FB
:105A400013FE01300DD0104BBA6819682D1B45F0BC
:105A500001053046091B55601960FFF70BFC01205A
:105A6000F8BD00213046FFF7FFFDBA68831A0F2BFF
:105A7000DEDD064C0449246843F00103001B53603B
:105A80000860D5E7A047002098EC0020AC4B002030
:105A9000002945D02DE9F0410D468046FFF7E8FB8F
:105AA00055F8047C6A4927F00103A5F10804E218BF
:105AB0008E685068B24220F0030062D0FE0750604A
:105AC0000BD455F8087CE41B01F1080EA568754558
:105AD0003B446FD0E768EF60BD6015186D68ED0757
